:080000000200A7C2B1D2B02238
:10000B0002000EC0E0C0F0C083C082C0D075D0002B
:10001B00C000C001C002C003C004C005C006C007B9
:10002B0020B3117F327E0012009020B307D2CD1285
:10003B00000380FED007D006D005D004D003D00239
:10004B00D001D000D0D0D082D083D0F0D0E03275A8
:10005B00CAFF1200B31200BE7F307E7512009020D3
:10006B00B20B30CD17C2CD1200C802008720CD0CC9
:10007B007F307E75120090D2CD1200037FB87E0BBD
:10008B0012009080DAEF1F70011E144E600D0000FD
:10009B00007D0B7CBEDCFEDDFC80EA22787FE4F683
:1000AB00D8FD75810802005AC2CDC2B0C2B1D2B21E
:1000BB000200C8750801D28AD2AFD2AA22C2B0D22E
:0200CB00B12260
:00000001FF
